:020000040801F1
:100000000000022091D30108653101084531010843
:1000100085310108A5310108C53101080000000043
:1000200000000000000000000000000025DB0108C7
:10003000F1D301080000000005DD01085DDD0108C5
:10004000F1D30108F1D30108F1D30108F1D301087C
:10005000F1D30108F1D30108FD6E0108096F010811
:10006000156F0108216F01082D6F0108B9590208A9
:10007000FD590208415A0208855A0208C95A020865
:100080000D5B0208515B0208516B0108F1D30108B6
:10009000E16B0108F1D30108F1D30108396F0108C0
:1000A000F1D3010895600208F1D30108F1D30108EA
:1000B000A9600208E1600208F560020851830108A6
:1000C0005D8301086983010875830108F1D3010884
:1000D000F1D30108459901085D9901087599010856
:1000E0005D6F0108F1D30108F1D30108F1D30108D4
:1000F000CD600208F1D30108F1D30108955B020835
:10010000F1D30108F1D30108B9600208F1D3010865
:10011000F1D3010869990108E56602089989010887
:10012000D95B02081D5C0208615C0208A55C02083C
:10013000E95C0208F1D30108F1D30108F1D3010809
:10014000F1D30108F1D30108F1D301084D010208F0
:100150002D5D0208715D0208B55D02085199010824
:10016000818301088D830108F1D30108F1D30108CF
:10017000F1D30108F1D30108F1D30108F1D301084B
:10018000F1D30108F1D30108EFBEADDE10B5054C87
:10019000237833B9044B13B10448AFF30080012333
:1001A000237010BD180C002000000000EC9605081C
:1001B00008B5064B1BB106480649AFF30080064858
:1001C000036813B1054B03B1984708BD0000000058
:1001D000EC9605081C0C0020100C0020000000000C
:1001E00070B50F4E0F4D761BB61007D0043D00249E
:1001F000013455F8043F9847A642F9D10A4E0B4DF9
:10020000761B3FF0F5F9B61008D0043D0024013408
:1002100055F8043F9847A642F9D170BD70BD00BFA4
:10022000DC0B0020DC0B00200C0C0020DC0B002081
:10023000F0B4840743D0541E002A3ED0CDB203460A
:1002400003E0621E002C38D0144603F8015B9A07C5
:10025000F7D1032C2AD9CDB245EA05250F2C45EA62
:10026000054515D9A4F110073F0903F1100606EB67
:1002700007161A46156055609560D5601032B24277
:10028000F8D104F00F040137032C03EB07130DD949
:100290001E462246043A032A46F8045BFAD8221F77
:1002A00022F003020432134404F003042CB1C9B257
:1002B0001C4403F8011BA342FBD1F0BC7047144659
:1002C0000346C6E7024B13B1024800F005B8704779
:1002D00000000000E5020108014600200246034636
:1002E00000F018B838B5094D094C641BA41018BFAC
:1002F00005EB840505D0013C55F8043D9847002CDA
:10030000F9D1BDE838403FF079B900BF0C0C0020AE
:10031000100C0020F0B5274C2668D6F8484185B06F
:100320000746002C41D065681F2D1EDD224818B9F4
:100330004FF0FF3005B0F0BD4FF4C870039102924A
:10034000019334F01DFD0399029A019B0446002895
:10035000EED0D6F848512560002060600546C6F80A
:100360004841C4F88801C4F88C013FB9AB1C002097
:100370000135656044F8231005B0F0BD04EB85003D
:100380004FF0010CC0F88820D4F888610CFA05F20F
:100390001643022FC4F88861C0F80831E6D1D4F8BA
:1003A0008C311A43C4F88C21E0E706F5A674C6F830
:1003B0004841B8E70CF60408814D040880B483B0C6
:1003C00000AF786039603B6818460C37BD465DF871
:1003D000047B704780B483B000AF78607B681846B8
:1003E0000C37BD465DF8047B704700BF80B483B016
:1003F00000AF78607B6818460C37BD465DF8047B1B
:10040000704700BF80B483B000AF78607B68002283
:100410009A607B6818460C37BD465DF8047B7047D0
:1004200080B582B000AF78607B689B68002B07D0F6
:100430007B689B6879687A6808461146032298476A
:100440007B6818460837BD4680BD00BF80B582B0C6
:1004500000AF78607B681846FFF7E2FF7B681846BC
:100460000837BD4680BD00BF80B485B000AFF860DE
:10047000B9607A603B607B6818461437BD465DF80A
:10048000047B704780B485B000AFF860B9607A60D3
:100490003B60002318461437BD465DF8047B704767
:1004A00080B483B000AF78607B681B6918460C3756
:1004B000BD465DF8047B704780B483B000AF7860C0
:1004C0007B681B6918460C37BD465DF8047B704796
:1004D00080B582B000AF786039603B68002B03DDE7
:1004E000234B1B78002B06D13B68002B06DA214BEF
:1004F0001B78002B02D000233B6012E01E4A3B68B1
:100500009BB25B429BB29BB21BB21046194609F0EC
:1005100029FC1A4A3B689BB21BB21046194609F0E7
:1005200021FC7B68002B03DD154B1B78002B06D1CB
:100530007B68002B06DA134B1B78002B02D00023BC
:100540007B6012E0104A7B689BB21BB210461946D2
:1005500009F008FC0D4A7B689BB25B429BB29BB2E0
:100560001BB21046194609F0FDFB0837BD4680BD99
:10057000360C0020370C0020B80E0020BC0E0020E6
:10058000340C0020350C0020C00E0020C40E0020CA
:1005900080B500AF074B00221A70074B00221A707B
:1005A000064B00221A70064B00221A70054803F011
:1005B000EFF880BD370C0020350C0020340C0020F3
:1005C000360C00208410002080B58AB002AF554858
:1005D000FFF766FF03461A68283A1268134407F1CA
:1005E0000C021046194600F00FFC4F48FFF758FF69
:1005F00003461A68283A1268134407F108021046A5
:10060000194600F001FC4948FFF756FF03461A68F7
:10061000283A126813443A1D1046194600F0F4FBBC
:100620004348FFF749FF03461A68283A1268134403
:100630003A461046194600F0E7FB07F10C0318464E
:1006400000F076FC03469BB21BB2FB6107F1080386
:10065000184600F06DFC03469BB21BB2BB613B1D0C
:10066000184600F065FC03469BB21BB27B613B461B
:10067000184600F05DFC03469BB21BB23B61BB69B0
:1006800000937B6901932B482B49FA693B6901F080
:10069000AFFF7B690A2B0DDC7B69002B0ADB274847
:1006A000274901F0A5FF274B01221A70264803F0C5
:1006B00063F835E03B690A2B0DDC3B69002B0ADB54
:1006C0001E48224901F094FF214B01221A701E4856
:1006D00003F052F824E0FB690A2B0DDCFB69002BC8
:1006E0000ADB16481B4901F083FF1B4B01221A70DD
:1006F000154803F041F813E0BB690A2B0DDCBB6918
:10070000002B0ADB0D48154901F072FF144B012242
:100710001A700D4803F030F802E0FFF739FF8CE75C
:100720008BE700BFA40E0020900E0020480E002092
:10073000600E0020E80F002010F604089C10002036
:1007400020F60408370C0020841000203CF6040832
:10075000360C002058F60408340C002074F6040807
:10076000350C002080B500AF034804F0ADFE03480F
:1007700001F07EFC80BD00BF4C10002090F6040804
:1007800080B5C2B000AF07F1D403184629F056FC7B
:1007900007F1F003184617F041F907F1D00207F10D
:1007A000F0031046AA491A462AF0CAF807F1F003E6
:1007B000184617F035F907F1F403184617F02EF92B
:1007C00007F1CC0207F1F4031046A2491A462AF0B9
:1007D000B7F807F1F403184617F022F90023C7F819
:1007E00004310023C7F8003107F1C803184629F087
:1007F00025FC07F1C403184629F020FC964803F0B5
:1008000007FA0346002B0CBF00230123DBB2002BA9
:1008100000F0DD8007F1E4038F48194601224FF410
:10082000FA7303F0AFF90346002B0CBF002301233A
:10083000DBB2002B00F0C78097F8E42007F1D80165
:10084000D7F804310B441A70D7F804310133C7F8D4
:10085000043197F8E4306E2B40F09B800023C7F8FA
:10086000043107F1D40207F1D8031046194629F0E4
:1008700033FE40E007F1F80207F1D40310461946B1
:100880000022D7F800312AF007F807F1C80207F173
:10089000F8031046194629F00FFC07F1F803184633
:1008A00029F0D6FC3A1D07F1C80310461946082264
:1008B00020F0ACFC3A1D07F1BC031046194617F0B6
:1008C00059F9D7F8BC306548194601F0D1FB07F15A
:1008D000D003184629F0AEFB0246D7F80031134486
:1008E00007F1D402104600211A4629F055FD3B1DA0
:1008F000184620F0DFF907F1D40207F1D0031046C3
:100900001946002229F012FCC7F80001D7F800317F
:10091000B3F1FF3F0CBF00230123DBB2002BA9D1B1
:1009200007F1D40207F1CC0310461946002229F042
:10093000FDFB034607F1FC0107F1D402084611460E
:10094000002229F0A9FF07F1C40207F1FC031046B9
:10095000194629F0B1FB07F1FC03184629F078FC91
:100960003A1D07F1C40310461946082220F04EFC38
:100970003A1D07F1C0031046194617F0FBF8D7F8E7
:10098000C0303748194601F073FB3B1D184620F074
:1009900091F9D7F8BC2013469B0013445B0019461D
:1009A000D7F8C02013469B0013445B000846194645
:1009B000FFF78EFD97F8E4306D2B00D007E0FFF7CE
:1009C000D1FE00BF03E0274801F052FBFFE715E727
:1009D00007F1F003184617F023F831E007F1F403AC
:1009E000184617F01DF826E007F1F803184629F01D
:1009F0002FFC0FE03B1D184620F05CF90AE007F1E0
:100A0000FC03184629F024FC04E03B1D184620F0A6
:100A100051F9FFE707F1C403184629F019FCFFE775
:100A200007F1C803184629F013FCFFE707F1CC03D0
:100A3000184629F00DFC07F1D003184629F008FCF0
:100A400007F1D403184629F003FC15F0EDFF00BFB1
:100A5000ACF60408B0F60408E80F0020B4F6040869
:100A6000BCF60408C4F6040880B588B000AF20487E
:100A70004FF416510022002303F03CF81D4804F007
:100A800077FC3B4618461C4900F052F83B46184696
:100A900002214FF4C87200230AF078FA3B46184648
:100AA000FFF7D4FC07F110031846144900F040F892
:100AB00007F11003184602214FF4C87200230AF010
:100AC00065FA07F110031846FFF7C0FC0CE03B463F
:100AD0001846FFF7BBFC15F0A7FF07F110031846F7
:100AE000FFF7B4FC15F0A0FF2037BD4680BD00BF66
:100AF000E80F00204C100020C905010881070108FB
:100B000080B483B000AF78607B6818460C37BD4670
:100B10005DF8047B704700BF80B483B000AF78609D
:100B20007B6818460C37BD465DF8047B704700BFF4
:100B300090B583B000AF786039607868FFF7E0FF68
:100B40007B681846FFF75EFC3B46184600F024F829
:100B50000346002B0FD07C683B461846FFF7DCFFAE
:100B600003462046194600F029F87B68084ADA60F7
:100B70007B68084A9A607B6805E07B681846FFF747
:100B80004FFC15F051FF18460C37BD4690BD00BF15
:100B9000E10B0108FD0B010880B483B000AF786061
:100BA0007B681B68002B0CBF00230123DBB21846B7
:100BB0000C37BD465DF8047B704700BF90B585B02B
:100BC00000AF786039603868FFF7A6FF03467868A1
:100BD0001946224600F04CF81437BD4690BD00BFC0
:100BE00080B582B000AF7860786800F05BF80346AB
:100BF0001B6898470837BD4680BD00BFB0B586B0BA
:100C000000AFF860B9601346FB71FB79032B27D85E
:100C100001A252F823F000BF290C0108370C01088B
:100C20004B0C0108570C0108F86800F04DF803461A
:100C30000E4A1A6014E0F86800F052F80446B868EA
:100C400000F030F8034623600AE0F868B9682A46E5
:100C500000F052F804E0F868214600F067F800BFA1
:100C6000002318461837BD46B0BD00BF10F7040872
:100C700090B585B000AFF860B9603A71B868FFF719
:100C80004BFF03461C68F868FFF7A4FB03460420EB
:100C90001946FFF793FB0346002B00D01C60143766
:100CA000BD4690BD80B584B000AF7860786800F034
:100CB00049F80346184600F051F8F860FB681846FA
:100CC0001037BD4680BD00BF80B582B000AF7860F0
:100CD0007868FFF77FFB034618460837BD4680BD9E
:100CE00080B582B000AF78607868FFF773FB034689
:100CF00018460837BD4680BD90B585B000AFF86096
:100D0000B9603A71B86800F01DF803461C68F868CD
:100D1000FFF760FB034604201946FFF74FFB03462D
:100D2000002B00D01C601437BD4690BD80B582B04A
:100D300000AF78603970786800F01CF80837BD465D
:100D400080BD00BF80B582B000AF78607868FFF7E3
:100D50004DFB034618460837BD4680BD80B483B0BE
:100D600000AF78607B6818460C37BD465DF8047BA1
:100D7000704700BF80B582B000AF78607868FFF739
:100D800029FB034618460837BD4680BD80B584B0B0
:100D900000AF786000F0BCFC0346FB607B68DB685A
:100DA0001B6808331B687A68D26810469847034668
:100DB0001A68383A12681A4412681C3212681968A4
:100DC000383909680B44184690470346002B03D076
:100DD0007B68FA681A6012E07B681B68FA68D21AAE
:100DE0007B685A607B685A6813461B0113445B009A
:100DF0001A46044BA3FB0223DA097B685A601037BA
:100E0000BD4680BDD34D621080B582B000AF786022
:100E10003960102016F028FA034600221A600022DA
:100E20005A6000221A720022DA607A6813607B68C6
:100E30001B6800221A727B681B683A68DA607B685C
:100E400018460837BD4680BDB0B58AB000AF78609F
:100E50007B681B681B7A002B00D063E07B681B68F3
:100E6000DB681B6808331B687A681268D268104612
:100E7000984703461A685C3A12681A4412683C3272
:100E800014681A685C3A12689D18284B7B627B686C
:100E900007F11C0107F12402084611461A4600F02A
:100EA000B7F807F10C0207F11C031046194600F0D1
:100EB0009BF907F10C03284602211A46A04707F1C7
:100EC0000C031846FFF7C2FA7B681B68DB681B68D7
:100ED00010331B687A681268D26810469847024639
:100EE00013681B68104698477B681B68DB681B68A3
:100EF00010331B687A681268D26810469847024619
:100F0000136820331B681046002198477B681B68D4
:100F100001221A7206E007F10C031846FFF796FA51
:100F200015F082FD2837BD46B0BD00BF8D0D01080C
:100F300080B582B000AF78607868FFF785FF7B6886
:100F40001B6800221A607B681B68DB681B68103313
:100F50001B687A681268D268104698470246136880
:100F600020331B6810460121984701200AF010F930
:100F70007B681B68DB681B6810331B687A68126823
:100F8000D268104698470246136820331B68104603
:100F90000021984718200AF0FBF87B681B681B6843
:100FA000002B0AD07B681B685B68B3F5C87F04D848
:100FB0007B681B685B689BB201E04FF6FF731BB256
:100FC00018460837BD4680BD80B483B000AF786056
:100FD0007B6818460C37BD465DF8047B704700BF40
:100FE00080B483B000AF78607B6818460C37BD468C
:100FF0005DF8047B704700BF80B483B000AF7860B9
:101000007B6818460C37BD465DF8047B704700BF0F
:1010100090B585B000AFF860B9607A60B868FFF746
:10102000DFFF0346184600F01DF904467868FFF715
:10103000E3FF0346F86821461A4600F05BF9F868BA
:101040001437BD4690BD00BF80B483B000AF786058
:101050007B6818460C37BD465DF8047B704700BFBF
:1010600080B483B000AF78607B6818460C37BD460B
:101070005DF8047B704700BF80B483B000AF786038
:101080007B6818460C37BD465DF8047B704700BF8F
:1010900080B582B000AF78607868FFF7EDFF7B68BD
:1010A00018460837BD4680BD80B483B000AF786075
:1010B0007B6818460C37BD465DF8047B704700BF5F
:1010C00080B483B000AF78607B6818460C37BD46AB
:1010D0005DF8047B704700BF80B582B000AF7860D8
:1010E0007B681846FFF7ECFF034618460837BD46F5
:1010F00080BD00BF80B483B000AF78607B681846C5
:101100000C37BD465DF8047B704700BF80B582B0E8
:1011100000AF786039603868FFF7ECFF03461A6863
:101120007B681A607B6818460837BD4680BD00BFE3
:1011300090B583B000AF786039603868FFF7B4FFCE
:1011400003461846FFF740FF7C683868FFF7C4FF86
:1011500003461846FFF7CEFF034620461946FFF721
:10116000D5FF7B6818460C37BD4690BD80B582B070
:1011700000AF786039607A683B6810461946FFF71F
:10118000D7FF7B6818460837BD4680BD90B583B051
:1011900000AF786039607868FFF77AFF3B681846DF
:1011A000FFF752FF03461A687B681A607B681C1DB4
:1011B0003B6804331846FFF753FF034620461946A1
:1011C000FFF7D4FF7B6818460C37BD4690BD00BFC3
:1011D00080B483B000AF78607B6818460C37BD469A
:1011E0005DF8047B704700BF90B583B000AF7860B6
:1011F00039607868FFF784FC7B681846FFF702F9CE
:10120000386800F097F80346002B0ED07C683868E9
:10121000FFF7DEFF03462046194600F097F87B688B
:10122000084ADA607B68084A9A607B6805E07B6858
:101230001846FFF7F5F815F0F7FB18460C37BD46D2
:1012400090BD00BF711301088D13010880B483B0F5
:1012500000AF78607B6818460C37BD465DF8047BAC
:10126000704700BF80B483B000AF78607B681846D9
:101270000C37BD465DF8047B704700BF80B582B077
:1012800000AF786039603868FFF7B6FE03461A6829
:101290007B681A607B6818460837BD4680BD00BF72
:1012A00090B583B000AF786039607868FFF7CEFF03
:1012B0007C683868FFF7A0FE034620461946FFF712
:1012C000DDFF7B6818460C37BD4690BD90B583B0F6
:1012D00000AF786039607C683868FFF78DFE0346A0
:1012E00020461946FFF7DCFF7B6818460C37BD46E1
:1012F00090BD00BF90B585B000AFF860B9607A606E
:10130000F868FFF7C5FEB868FFF79EFE03461A6847
:10131000FB681A60FB681C1D7868FFF76DFE0346CA
:1013200020461946FFF7D2FFFB6818461437BD4622
:1013300090BD00BF80B483B000AF78600123184631
:101340000C37BD465DF8047B704700BF90B585B093
:1013500000AF786039603868FFF73AFF0346786875
:101360001946224600F04CF81437BD4690BD00BF28
:1013700080B582B000AF7860786800F05BF8034613
:10138000184600F067F80837BD4680BDB0B586B096
:1013900000AFF860B9601346FB71FB79032B27D8C7
:1013A00001A252F823F000BFB9130108C7130108C6
:1013B000DB130108E7130108F868FFF785FC024614
:1013C0000E4B136014E0F86800F054F80446B86857
:1013D00000F030F8034623600AE0F868B9682A464E
:1013E00000F054F804E0F868214600F06DF800BF02
:1013F000002318461837BD46B0BD00BF8CF704085F
:10140000B0B584B000AFF860B9603A71B868FFF762
:10141000DFFE0546082015F027FF04462046294632
:10142000FFF7B4FEF86800F025F803461C6010379B
:10143000BD46B0BD80B584B000AF7860786800F07C
:101440005BF803461B68FB60FB6818461037BD4617
:1014500080BD00BF90B585B000AF786000F044F863
:1014600007F1080378681946224600F06BF8143734
:10147000BD4690BD80B582B000AF78607868FEF759
:10148000A9FF034618460837BD4680BDB0B584B0F5
:1014900000AFF860B9603A71B86800F02DF8034603
:1014A0001D68082015F0E0FE044623462A4692E80F
:1014B000030083E80300F868FFF7DCFF03461C60C5
:1014C0001037BD46B0BD00BF80B582B000AF7860B8
:1014D00039707868FFF7CEFF03461B68184615F091
:1014E0009FFA0837BD4680BD80B400AF1846BD46A0
:1014F0005DF8047B704700BF80B582B000AF7860B4
:101500007868FEF773FF034618460837BD4680BD6E
:1015100080B582B000AF78607868FFF7DDFD0346E4
:1015200018460837BD4680BD80B582B000AF7860F0
:101530007B681846FFF7ECFF034618460837BD46A0
:1015400080BD00BF90B587B000AFF860B9603A7158
:10155000FB681C68FB6804331846FFF7E5FF02468A
:1015600007F1140318461146BA6800F007F803465D
:101570001B681846A0471C37BD4690BD80B584B097
:1015800000AFF860B9607A60B868FFF735FD0346D0
:1015900018461037BD4680BD80B400AFBFF34F8FF3
:1015A0000549054BDB6803F4E062044B1343CB6051
:1015B000BFF34F8FFEE700BF00ED00E00400FA0527
:1015C00080B483B000AF78607B6818460C37BD46A6
:1015D0005DF8047B704700BF80B582B000AF7860D3
:1015E000344802F0B9F8344802F0B6F8334802F053
:1015F000B3F8304802F0CCF82F4802F0C9F82F4871
:1016000002F0C6F807F0EEF92D4802F0E9F82D488F
:1016100003F0FAFD2C4804F01DF92C4803F0F4FD0A
:101620002A4803F0A5FE00F0D9F829480EF0BCFDC9
:1016300008F0F4FD274B184608F086FB264B1846A9
:1016400008F082FB254B184608F07EFB244B184619
:1016500008F07AFB234B184608F076FB224B18461D
:1016600008F072FB08F0EAFD204802F071FE204805
:1016700002F06EFE1F4802F06BFE1F4802F068FE8B
:101680001E4802F065FE02F0E3F81D4802F068F91A
:101690001C4802F065F91C4804F036FE1B4804F0B3
:1016A00033FEC32009F074FD052009F071FD0837F1
:1016B000BD4680BD841000208C10002094100020B6
:1016C000500C0020400C00203C0C0020480C002056
:1016D000640C0020B80E0020BC0E0020C00E0020BC
:1016E000C40E0020C80E0020CC0E0020780C002074
:1016F000E00C0020480D0020B00D0020FC0D002063
:10170000980F002008100020E80E0020180F00207D
:1017100080B500AF07F052F90346184680BD00BF00
:1017200080B582B000AF7860786833F029FB03465B
:1017300018460837BD4680BD80B582B000AF7860DE
:10174000786833F025FB0837BD4680BD80B582B090
:1017500000AF78600CF07EFA074B1B68002B01D1BC
:101760000DF04CFB044B1B680133034A13600CF073
:1017700099FA0837BD4680BD540C002080B582B070
:1017800000AF7860064B1B68013B054A1360044BB1
:101790001B68002B01D10DF03FFB0837BD4680BD13
:1017A000540C002080B582B000AF7860786833F0C8
:1017B000E7FA034618460837BD4680BD80B582B0BB
:1017C00000AF7860786833F0E3FA0837BD4680BD33
:1017D00080B500AFFFF7E0FE80BD00BF80B500AF71
:1017E0000248012103F060FE80BD00BF480C0020CC
:1017F00080B500AF0248002103F056FE80BD00BF57
:10180000480C002080B400AF034B044A1A60BD4668
:101810005DF8047B704700BF3C0400209C10002052
:1018200080B483B000AF78607B68002B03D0064A99
:101830007B68136002E0044B044A1A600C37BD4613
:101840005DF8047B704700BF38040020340400209A
:1018500080B582B000AF78603960084B1B681B68A8
:1018600008331B68054A1268104679683A68984739
:10187000034618460837BD4680BD00BF3804002027
:101880000FB480B582B000AF07F114037B603869F4
:10189000796800F009F8034618460837BD46BDE8E8
:1018A000804004B0704700BF80B582B000AF786060
:1018B0003960084B1B681B6808331B68054A1268AF
:1018C000104679683A689847034618460837BD4677
:1018D00080BD00BF3C0400200FB480B582B000AFD3
:1018E00007F114037B603869796800F017F8034644
:1018F00018460837BD46BDE8804004B0704700BFB9
:1019000080B582B000AF03463960FB71FB791846A1
:1019100007F07AFB0837BD4680BD00BF90B593B095
:1019200000AF7860396007F10803184679683A68B3
:1019300000F028FB104B7B6407F1080207F1440319
:101940001046194600F0A6F807F10803184600F003
:101950004DFB044607F10803184600F035FB23460B
:1019600006E007F10803184600F02EFB15F05CF8BE
:1019700018464C37BD4690BD0119010880B584B0AA
:1019800000AF78600023FB6009E0FB687A681344CD
:101990001B78184607F038FBFB680133FB60FB68D7
:1019A0007A6813441B78002BEFD11037BD4680BDF9
:1019B00080B500AF01480EF063FDFBE7640C00202A
:1019C00080B400AF034B4AF6AA221A60BD465DF808
:1019D000047B70470030004080B582B000AF0CF04F
:1019E00083F900237B60462004F048FF7B6803F006
:1019F0000103002B14BF01230023DBB20F4819465B
:101A000001F0D2FE7B6803F00103002B0CBF012321
:101A10000023DBB20A48194601F0C6FE7B6803F0DA
:101A20000203002B14BF01230023DBB20548194633
:101A300001F0BAFE7B6801337B60D4E7841000209C
:101A40008C1000209410002080B483B000AF786028
:101A50007B6818460C37BD465DF8047B704700BFB5
:101A600080B483B000AF78607B6818460C37BD4601
:101A70005DF8047B704700BF80B582B000AF78602E
:101A80007B681846FEF7CCFC7B6818460837BD46D5
:101A900080BD00BF80B586B000AF7860396038681F
:101AA000FFF7DEFF03461B6807F1080210461946E0
:101AB00000F034F807F108031846796800F062F87E
:101AC00007F108031846FFF7D7FF7B681846183759
:101AD000BD4680BD80B483B000AF78607B68184697
:101AE0000C37BD465DF8047B704700BF80B582B0FF
:101AF00000AF78607868FFF7EDFF7B68184608371D
:101B0000BD4680BD80B483B000AF78607B68184666
:101B10000C37BD465DF8047B704700BF90B583B0BD
:101B200000AF786039607868FFF7E0FF7B6818469F
:101B3000FEF768FC3B46184600F0A0F80346002B71
:101B40000FD07C683B461846FFF7DCFF0346204673
:101B5000194600F0A5F87B68084ADA607B68084AF5
:101B60009A607B6805E07B681846FEF759FC14F024
:101B70005BFF18460C37BD4690BD00BFDD1C010859
:101B80001D1D010880B582B000AF786039607A68A9
:101B90003B681046194600F021F87B6803F1080203
:101BA0003B6808331046194600F04AF87B6803F199
:101BB0000C023B680C331046194600F0F5F8083764
:101BC000BD4680BD80B483B000AF78607B681846A6
:101BD0000C37BD465DF8047B704700BF80B584B00C
:101BE00000AF786039607868FFF7ECFF024607F1D4
:101BF000080392E8030083E803003868FFF7E2FF78
:101C000002467B6892E8030083E8030007F10803BB
:101C10001846FFF7D7FF02463B6892E8030083E8C7
:101C200003001037BD4680BD80B483B000AF78603C
:101C30007B6818460C37BD465DF8047B704700BFD3
:101C400080B584B000AF786039607868FFF7ECFF4A
:101C500003461B68FB603868FFF7E6FF03461A6817
:101C60007B681A6007F10C031846FFF7DDFF034697
:101C70001A683B681A601037BD4680BD80B483B0D7
:101C800000AF78607B681B68002B14BF0123002322
:101C9000DBB218460C37BD465DF8047B704700BFC9
:101CA00090B585B000AF786039603868FFF72AFFDB
:101CB000034678681946224600F094F81437BD466A
:101CC00090BD00BF80B483B000AF78607B681846D9
:101CD0000C37BD465DF8047B704700BFB0B584B0DB
:101CE00000AFF8600B467A60FB72F86800F094F879
:101CF00003461C6807F10B031846FFF7E3FF034692
:101D00001D783B1D1846FFF79FFE03461B682846BB
:101D10001946A0471037BD46B0BD00BFB0B586B06C
:101D200000AFF860B9601346FB71FB79032B27D82D
:101D300001A252F823F000BF491D0108571D0108F8
:101D40006B1D0108771D0108F868FEF7BDFF02460C
:101D50000E4B136014E0F86800F070F80446B868A1
:101D600000F05AF8034623600AE0F868B9682A468A
:101D700000F070F804E0F868214600F085F800BF34
:101D8000002318461837BD46B0BD00BF38F8040818
:101D900080B483B000AF78607B6818460C37BD46CE
:101DA0005DF8047B704700BF80B584B000AF7860F9
:101DB00039607868FFF7ECFF03461B68FB60386802
:101DC000FFF7E6FF03461A687B681A6007F10C0309
:101DD0001846FFF7DDFF03461A683B681A601037A4
:101DE000BD4680BD90B585B000AFF860B9603A716E
:101DF000B868FFF787FE03461C68F868FEF7EAFA42
:101E0000034604201946FEF7D9FA0346002B00D0FA
:101E10001C601437BD4690BD80B584B000AF7860BB
:101E2000786800F03DF80346184600F045F8F86081
:101E3000FB6818461037BD4680BD00BF80B582B034
:101E400000AF78607868FEF7C5FA03461846083791
:101E5000BD4680BD90B585B000AFF860B9603A71FD
:101E6000B86800F01DF803461C68F868FEF7B2FA7F
:101E7000034604201946FEF7A1FA0346002B00D0C2
:101E80001C601437BD4690BD80B582B000AF78604D
:101E90003970786800F01CF80837BD4680BD00BF77
:101EA00080B582B000AF78607868FEF79FFA03468D
:101EB00018460837BD4680BD80B483B000AF786057
:101EC0007B6818460C37BD465DF8047B704700BF41
:101ED00080B582B000AF78607868FEF77BFA034681
:101EE00018460837BD4680BD80B582B000AF786027
:101EF00039607B68012B12D13B684FF6FF72934229
:101F00000DD10848FFF75CFB0748682103F06AFC25
:101F10000648412103F010FA054801F055FC083746
:101F2000BD4680BD380C00203C0C0020480C002031
:101F3000500C002080B500AF01204FF6FF71FFF775
:101F4000D3FF80BD80B483B000AF78607B689B68AE
:101F5000002B0CBF01230023DBB218460C37BD4613
:101F60005DF8047B704700BF80B582B000AF786039
:101F70007B681846FEF754FA7B6818460837BD465A
:101F800080BD00BF80B584B000AFF860B9607A60F2
:101F9000FB68184600F010F9FB681033184600F093
:101FA00027F9FB68BA681A62FB6800229A62FB682C
:101FB0000022DA62FB6824337A681A60FB681846EC
:101FC0001037BD4680BD00BF80B582B000AF7860DD
:101FD0007B6810331846FFF7C7FF7B681846FFF78A
:101FE0004BFD7B6818460837BD4680BD80B584B080
:101FF00000AF78607B685B6ABB607B6800221A6315
:102000007B681B6A78681946BA6800F0B9FE034617
:10201000FB60786800F006F8FB6818461037BD468C
:1020200080BD00BF80B582B000AF78607B689B6ADE
:10203000002B03D07B681B6B002B00D115E07B6865
:102040001033184600F0E4F80346002B0AD07B68F2
:1020500003F110007B68996A7B681A6B7B689B6B45
:1020600000F0FEF87B6800221A630837BD4680BD89
:102070000FB480B582B000AF07F114037B603869FC
:102080007968FFF7E5FB034618460837BD46BDE80B
:10209000804004B0704700BF0EB480B585B000AF7B
:1020A000786007F12003FB6078684FF0FF31FA6930
:1020B000FB6800F043F8034618461437BD46BDE8F8
:1020C000804003B0704700BF80B584B000AFF860B7
:1020D000B9607A60F8684FF0FF31BA687B6800F049
:1020E0002DF8034618461037BD4680BD80B485B034
:1020F00000AFF8600B467A60FB72FB689B68B3F137
:10210000FF3F08D0FB681B681A68FB689B68013BAF
:102110009A4200D10DE0FB685B681A68FB681B6897
:102120001B681344FA7A1A70FB681B681A6801323C
:102130001A601437BD465DF8047B704790B599B0BE
:1021400000AFF860B9607A603B6007F1140318468D
:1021500079683A68FFF716FF00233B6507F15003E3
:102160007B6507F10C03BB65BB68FB6507F11402D7
:1021700007F154031046194600F0AEF807F11403B6
:102180001846FFF733FFFA683B6D134400221A70BC
:102190003B6D1C4607F114031846FFF715FF234655
:1021A00006E007F114031846FFF70EFF14F03CFC9D
:1021B00018466437BD4690BD80B582B000AF7860E8
:1021C0007868FFF793FC7B681846FEF71BF97B687D
:1021D00018460837BD4680BD80B483B000AF786034
:1021E0007B6818460C37BD465DF8047B704700BF1E
:1021F00080B582B000AF78607868FFF7EDFF7B684C
:102200001846FEF7FFF87B6818460837BD4680BDC4
:1022100080B582B000AF78607B681846FFF792FE09
:10222000034683F00103DBB218460837BD4680BD84
:1022300080B483B000AF78607B6818460C37BD4629
:102240005DF8047B704700BF80B483B000AF786056
:102250007B6818460C37BD465DF8047B704700BFAD
:102260002DE9F04184B000AFF860B9607A603B605E
:10227000FB681846FFF766FE0346002B01D027F0E7
:10228000ADFEFB68DC68D7F80C8007F10803184640
:10229000FFF7CEFF03461E683B1D1846FFF7D4FF2D
:1022A00003461D683B461846FFF7CEFB03461B68F6
:1022B000404631462A46A0471037BD46BDE8F0816A
:1022C00080B483B000AF78607B6818460C37BD4699
:1022D0005DF8047B704700BF80B586B000AF7860C2
:1022E00039603868FFF7ECFF034607F10802104633
:1022F0000ECB00F01DF807F1080318467968FFF7C8
:1023000041FC07F108031846FFF7B6FB7B68184647
:102310001837BD4680BD00BF80B483B000AF786081
:102320007B6818460C37BD465DF8047B704700BFDC
:1023300090B585B000AFF860384680E80E00F868C8
:10234000FFF7D4FBFB681846FEF75CF83B461846DF
:1023500000F024F80346002B0FD0FC683B461846DB
:10236000FFF7DAFF03462046194600F023F8FB6822
:10237000084ADA60FB68084A9A60FB6805E0FB6877
:102380001846FEF74DF814F04FFB18461437BD46BB
:1023900090BD00BFD92301081924010880B483B07F
:1023A00000AF7860012318460C37BD465DF8047B0A
:1023B000704700BF90B585B000AF7860396038686D
:1023C000FFF7AAFF034678681946224600F05EF838
:1023D0001437BD4690BD00BFB0B584B000AFF86003
:1023E0000B467A60FB72F86800F06CF8054607F15E
:1023F0000B031846FFF766FC03461C783B1D184686
:10240000FFF722FB03461B68284621461A46FFF7C2
:102410006DFE1037BD46B0BDB0B586B000AFF860F8
:10242000B9601346FB71FB79032B27D801A252F840
:1024300023F000BF45240108532401086724010844
:1024400073240108F868FEF73FFC02460E4B136048
:1024500014E0F86800F046F80446B86800F032F876
:10246000034623600AE0F868B9682A4600F046F897
:1024700004E0F868214600F05DF800BF002318462C
:102480001837BD46B0BD00BF58F80408B0B584B0D9
:1024900000AFF860B9603A71B868FFF73DFF0546D4
:1024A0000C2014F0E1FE044623462A4607CA83E8BE
:1024B0000700F86800F016F803461C601037BD46A8
:1024C000B0BD00BF80B584B000AF7860786800F020
:1024D00041F803461B68FB60FB6818461037BD4691
:1024E00080BD00BF80B582B000AF78607868FDF72E
:1024F00071FF034618460837BD4680BDB0B584B0AD
:1025000000AFF860B9603A71B86800F023F803468C
:102510001D680C2014F0A8FE044623462A4607CA6C
:1025200083E80700F868FFF7DDFF03461C601037FB
:10253000BD46B0BD80B582B000AF786039707868B4
:10254000FFF7D0FF03461B68184614F069FA0837F6
:10255000BD4680BD80B582B000AF78607868FDF779
:1025600045FF034618460837BD4680BD80B582B09A
:1025700000AF78607B681B6808331B6878689847F1
:10258000034618460837BD4680BD00BF80B582B0FF
:1025900000AF786039607B681B680C331B68786813
:1025A00039689847034618460837BD4680BD00BFC6
:1025B00080B582B000AF786039607B683A681A6095
:1025C00038684FF0FF31FFF7E1FF7B6818460837A6
:1025D000BD4680BD80B582B000AF78607B681B6867
:1025E0001846FFF7C3FF7B6818460837BD4680BD15
:1025F0000EB480B585B000AF786007F12003FB60B2
:102600007B681B6808331B687868F969FA68984723
:10261000034618461437BD46BDE8804003B07047F6
:1026200080B584B000AFF8600B467A60FB72FB7A2D
:102630007868194600F048F81037BD4680BD00BFE5
:1026400090B597B000AFF860B9607A6007F14C03BD
:1026500018461C49FFF7ACFF07F110031846B9688C
:102660007A68FFF78FFCFB68BB6407F1100207F183
:1026700050031046194600F04BF807F110031846B6
:10268000FFF7B4FC03467B657C6D07F11003184629
:10269000FFF79AFC07F14C031846FFF79BFF234610
:1026A0000CE007F110031846FFF78EFCFFE707F177
:1026B0004C031846FFF78EFF14F0B6F918465C3746
:1026C000BD4690BD580C002090B585B000AF786035
:1026D0000B46FB707B681B681C68FB1C78681946FE
:1026E00001224FF0FF33A0470346FB60FB6818460A
:1026F0001437BD4690BD00BF80B483B000AF786092
:102700007B6818460C37BD465DF8047B704700BFF8
:1027100090B587B000AF786039603868FFF7ECFF9C
:1027200007F108031846214600F01CF807F10803DA
:1027300018467968FFF726FA07F108031846FFF7ED
:102740009BF97B6818461C37BD4690BD80B483B0AA
:1027500000AF78607B6818460C37BD465DF8047B97
:10276000704700BF90B583B000AF7860397078686B
:10277000FFF7BCF97B681846FDF744FE3B46184658
:1027800000F024F80346002B0FD07C683B46184627
:10279000FFF7DCFF03462046194600F023F87B686C
:1027A000084ADA607B68084A9A607B6805E07B68C3
:1027B0001846FDF735FE14F037F918460C37BD46BC
:1027C00090BD00BF092801084928010880B483B0E2
:1027D00000AF7860012318460C37BD465DF8047BD6
:1027E000704700BF90B585B000AF78603960386839
:1027F000FFF7ACFF034678681946224600F05EF802
:102800001437BD4690BD00BFB0B584B000AFF860CE
:102810000B467A60FB72F86800F066F8054607F12F
:102820000B031846FFF74EFA03461C783B1D18466B
:10283000FFF70AF903461B68284621461A46FFF7A8
:10284000EFFE1037BD46B0BDB0B586B000AFF86042
:10285000B9601346FB71FB79032B27D801A252F80C
:1028600023F000BF75280108832801089728010874
:10287000A3280108F868FEF727FA02460E4B1360FA
:1028800014E0F86800F040F80446B86800F02CF84E
:10289000034623600AE0F868B9682A4600F040F869
:1028A00004E0F868214600F051F800BF0023184604
:1028B0001837BD46B0BD00BFB0F8040890B585B06C
:1028C00000AFF860B9603A71B868FFF73FFF0120C8
:1028D00014F0CAFC0446F86800F016F803461C60C1
:1028E0001437BD4690BD00BF80B584B000AF78609E
:1028F000786800F03BF803461B68FB60FB681846ED
:102900001037BD4680BD00BF80B582B000AF786093
:102910007868FDF75FFD034618460837BD4680BD61
:1029200090B585B000AFF860B9603A71B86800F052
:102930001DF8012014F098FC0446F868FFF7E4FF46
:1029400003461C601437BD4690BD00BF80B582B001
:1029500000AF786039707868FFF7D6FF03461B68D0
:10296000184614F05DF80837BD4680BD80B582B0CA
:1029700000AF78607868FDF739FD034618460837E0
:10298000BD4680BD80B582B000AF786039607B689D
:10299000012B0DD13B684FF6FF72934208D10648D8
:1029A000002108F09DF804480449054A13F0BAFFD5
:1029B0000837BD4680BD00BF580C00206DAB010834
:1029C0000000002080B500AF01204FF6FF71FFF737
:1029D000D9FF80BD80B582B000AF786039607B6878
:1029E000002B09D079683B68DAB27B689B6B08469C
:1029F00011461A4600F0E0FA0837BD4680BD00BF18
:102A000080B588B000AFF860B9607A603B600023A1
:102A1000FB612023BB617B68002B20DD00237B61F1
:102A2000BB683B6105E07B6901337B613B69013336
:102A30003B613B691B78002BF5D17A697B689A4230
:102A400002DB00237B6003E07A687B69D31A7B603A
:102A50003B6803F00203002B01D03023BB613B68CD
:102A600003F00103002B0DD109E0F868B969FFF705
:102A7000B1FFFB690133FB617B68013B7B607B68D5
:102A8000002BF2DC0BE0BB681B78F8681946FFF7F7
:102A9000A1FFFB690133FB61BB680133BB60BB680D
:102AA0001B78002BEFD109E0F868B969FFF792FFB6
:102AB000FB690133FB617B68013B7B607B68002B1A
:102AC000F2DCFB6918462037BD4680BD80B58CB06E
:102AD00000AFF860B9607A603B6000237B6200233E
:102AE0003B62BB68FB61BB68002B0DD130233B749C
:102AF00000237B7407F11003F8681946BA6BFB6B6F
:102B0000FFF77EFF03465BE03B68002B0AD07B6843
:102B10000A2B07D1BB68002B04DA01237B62BB6858
:102B20005B42FB6107F110030B33FB62FB6A00227F
:102B30001A701DE07A68FB69B3FBF2F102FB01F247
:102B40009B1ABB62BB6A092B04DD3B6C3A3BBA6A39
:102B50001344BB62FB6A013BFB62BB6ADBB23033EE
:102B6000DAB2FB6A1A707B68FA69B2FBF3F3FB61B5
:102B7000FB69002BDED17B6A002B18D0BB6B002BCE
:102B80000FD0FB6B03F00203002B0AD0F8682D2155
:102B9000FFF720FF3B6A01333B62BB6B013BBB632A
:102BA00005E0FB6A013BFB62FB6A2D221A70F868A4
:102BB000F96ABA6BFB6BFFF723FF02463B6A1344CB
:102BC00018463037BD4680BDB0B590B004AF7861CF
:102BD00087ED020B39617A600023FB623B69092BA8
:102BE00001DD09233B61D7E902014FF000024FF0FC
:102BF000000330F023FB0346002B0DD078692D2114
:102C0000FFF7E8FEFB6A0133FB62BB68BB60FB6851
:102C100083F00043FB6009E07B68012B06D17869F3
:102C20002021FFF7D7FEFB6A0133FB62514BBB62E9
:102C300006237B623B69002B17D03B693B620A236A
:102C4000BB6205E0BA6A13469B0013445B00BB629B
:102C50003B6A013B3B623B6A002B14BF012300230C
:102C6000DBB2002BEED13B697B62D7E9020130F089
:102C70000DFB0346FB61F86930F008F802460B468D
:102C8000D7E902012FF0B4FE02460B4614461D465A
:102C9000B86A2FF0FBFF02460B462046294630F06B
:102CA0005BF802460B46104619464FF00002324BC5
:102CB00030F052F802460B461046194630F0E6FA5C
:102CC0000346BB61B9692D4B83FB01239A10CB17D7
:102CD000D21A13469B0013445B00CA1A042A14DD5F
:102CE000BB69264A82FB03129210DB17D31ABB6121
:102CF000BB690133BB61BA69BB6A9A420DD100233B
:102D0000BB61FB690133FB6107E0BB691B4A82FBC6
:102D100003129210DB17D31ABB6100230093002328
:102D20000193612302937869F9690A220023FFF76E
:102D3000CDFE0246FB6A1344FB6278692E21FFF741
:102D400049FEFB6A0133FB627B6A00930223019315
:102D5000612302937869B9690A220023FFF7B6FE5E
:102D60000246FB6A1344FB62FB6A18463037BD46D5
:102D7000B0BD00BF40420F00000024406766666699
:102D800080B58EB004AFF860B9607A600023FB6153
:102D900005E1BB681B78252B40F0F580BB6801334B
:102DA000BB6000233B623B6A7B62BB681B78002BE5
:102DB00000D1F9E0BB681B78252B00D1E3E0BB68AC
:102DC0001B782D2B04D1BB680133BB6001233B6210
:102DD00006E0BB680133BB603B6A43F002033B6221
:102DE000BB681B78302BF4D00EE07A6A13469B0048
:102DF00013445B007B62BB681B78303B7A6A1344E8
:102E00007B62BB680133BB60BB681B782F2B03D987
:102E1000BB681B78392BE8D9BB681B78732B15D19D
:102E20007B681A1D7A601B68BB61BB69002B01D0EF
:102E3000BB6900E05F4BF86819467A6A3B6AFFF7A6
:102E4000DFFD0246FB691344FB61A5E0BB681B780C
:102E5000642B14D17B681A1D7A601A687B6A009310
:102E60003B6A019361230293F86811460A22012309
:102E7000FFF72CFE0246FB691344FB618CE0BB6844
:102E80001B78782B03D0BB681B78702B14D17B6820
:102E90001A1D7A601A687B6A00933B6A019361236A
:102EA0000293F868114610220023FFF70FFE024636
:102EB000FB691344FB616FE0BB681B78582B14D18E
:102EC0007B681A1D7A601A687B6A00933B6A0193DB
:102ED00041230293F868114610220023FFF7F6FD04
:102EE0000246FB691344FB6156E0BB681B78752BF7
:102EF00014D17B681A1D7A601A687B6A00933B6A5A
:102F0000019361230293F86811460A220023FFF718
:102F1000DDFD0246FB691344FB613DE0BB681B78A5
:102F2000662B16D17B68073323F0070303F10802F1
:102F30007A6093ED007BF868B0EE470AF0EE670A1E
:102F4000796A3A6AFFF740FE0246FB691344FB6167
:102F500022E0BB681B78632B14D17B681A1D7A6052
:102F60001B68DBB23B7500237B7507F11403F8681F
:102F700019467A6A3B6AFFF743FD0246FB69134430
:102F8000FB6109E008E0BB681B78F8681946FFF7A9
:102F900021FDFB690133FB61BB680133BB60BB688A
:102FA0001B78002B7FF4F5AEFB6918462837BD4629
:102FB00080BD00BFF4F80408F0B585B000AFF8603C
:102FC0000B467A60FB72FB681846FEF7BBFF0346B0
:102FD000002B01D027F002F8FB68DC68FE6807F1DF
:102FE0000B031846FEF76EFE03461D783B1D184680
:102FF000FEF72AFD03461B68304629461A46A047BD
:103000001437BD46F0BD00BF80B582B000AF786018
:1030100039603B681A687B681A607B681B68183BDC
:103020001B681A467B6813443A6852681A6000238A
:10303000002B02D0786813F0F3FC7B681846083741
:10304000BD4680BD80B500AF03F058FC08484FF482
:10305000E1210022002300F04DFD06484FF4E1215C
:103060000022002300F046FD0148FEF7D9FB80BD99
:103070009C100020480F002080B586B000AF78601B
:10308000144800F079FBFFF7DDFF11F003FF07F1B3
:10309000080318461049FDF74BFD07F108031846D1
:1030A00001214FF4FA720D4B07F070FF07F108038E
:1030B0001846FDF7CBF900200BF096FD06E007F16E
:1030C00008031846FDF7C2F913F0AEFC1837BD46E9
:1030D00080BD00BF8410002065670108FCF804086B
:1030E00080B584B004AF4FF4407008F069F94FF434
:1030F0008000012109F0B8FB4FF40010012109F014
:10310000B3FB0D4B01221A600423009300230193AB
:103110000023029300230393084809494FF4C8721F
:1031200000230BF099FC0346012B0BF025FE002336
:103130001846BD4680BD00BFB4100020793001089C
:1031400004F9040880B500AF044B1B68012B02D1C1
:103150000348FEF713FCFEF73FFC80BDB4100020CF
:103160000CF9040880B500AF044B1B68012B02D199
:103170000348FEF703FCFEF72FFC80BDB4100020CF
:1031800020F9040880B500AF044B1B68012B02D165
:103190000348FEF7F3FBFEF71FFC80BDB4100020D0
:1031A00030F9040880B500AF044B1B68012B02D135
:1031B0000348FEF7E3FBFEF70FFC80BDB4100020D0
:1031C00044F9040880B500AF044B1B68012B02D101
:1031D0000348FEF7D3FBFEF7FFFB80BDB4100020D1
:1031E00058F9040880B582B000AF78607B68184653
:1031F00007F0ECFB7B6818460837BD4680BD00BF72
:1032000080B582B000AF78607B68084A1A607B683E
:1032100010331846FFF7E6FF7B680433184607F0C3
:10322000A5FC7B6818460837BD4680BD902D050873
:1032300080B582B000AF7860104A7B681A600022C7
:103240007B6813440D4A1A6000227B6813440B4AC2
:103250001A600223002B05D07B68094A18461146E4
:10326000FFF7D2FE0023002B02D0786813F0D8FBC2
:103270007B6818460837BD4680BD00BF04FA0408C5
:1032800034FA040880B582B000AF78607B681B68B0
:103290001C3B1B681A467B6813441846FFF7C8FF9F
:1032A000034618460837BD4680BD00BF80B582B0D2
:1032B00000AF78600B4A7B681A6000227B68134479
:1032C000084A1A6064227B681344074A1A607B68C4
:1032D0004C331846FFF7ACFF7B6818460837BD46ED
:1032E00080BD00BF4CFB0408BCFB040880B582B065
:1032F00000AF78607B681C331846FDF7A7F87B6841
:103300000C331846FDF7A2F87B6818460837BD460F
:1033100080BD00BF80B582B000AF78607B6850335D
:103320001846FFF785FF7B6818460837BD4680BD05
:1033300080B582B000AF786039607B68012B40F0C7
:10334000BA803B684FF6FF72934240F0B4805B480E
:103350000CF004FF59485A495A4A13F0E3FA5A4804
:10336000002101F097F85948012101F093F85848DD
:10337000022101F031F956485649524A13F0D2FA67
:103380005548032101F064F85448042101F060F825
:1033900053484D4901F0D2FB52484C4901F0CEFB55
:1033A00051484B4901F048FC50484B4901F07AFB29
:1033B0004F484A4901F076FB4E48002106F0A4FC34
:1033C0004D48012106F0A0FC4C48022106F09CFC6F
:1033D0004B48032106F098FC4A48042106F094FC6F
:1033E0004948052106F090FC424A484B1A60424A7F
:1033F000464B5A60414A454B9A60414A434BDA601A
:10340000404A424B1A61404A404B5A6140480021B1
:1034100002F034FF3E483F492A4A13F083FA3E48FF
:10342000012102F02BFF3C483A49264A13F07AFA70
:103430003A48042100F008FB38483949214A13F082
:1034400071FA3848022101F09DFC3748002101F053
:1034500075FD3648002100F00BFA34483449194A0A
:1034600013F060FA3348012100F002FA3148304984
:10347000144A13F057FA304800F0AEFA2F4801F022
:1034800001FE2E482E490F4A13F04CFA2D48002118
:1034900000F04CF92C48012100F048F92B4802219A
:1034A00000F044F92A48002100F0CEFA28481C49CF
:1034B000044A13F037FA0837BD4680BD640C00207B
:1034C0000132010800000020780C0020E00C0020F0
:1034D000480D0020AD320108B00D0020FC0D002089
:1034E000480E0020600E0020780E0020900E002074
:1034F000A40E0020B80E0020BC0E0020C00E00203C
:10350000C40E0020C80E0020CC0E0020D00E0020DB
:10351000E80E0020ED320108180F0020480F0020AF
:1035200031320108600F0020780F0020980F002032
:1035300015330108081000207810002080100020AA
:10354000CD500108841000208C1000209410002021
:103550009C10002080B500AF01204FF6FF71FFF7EF
:10356000E7FE80BD80B584B000AF7860104B1B686B
:10357000002B02D10E4B0F4A1A600D4B1B68FB60EB
:103580000B4B1A687B681344094A1360084B1B688D
:1035900003F58073084A934204DD084803F01EF9DE
:1035A00003F0D4F8FB6818461037BD4680BD00BF55
:1035B000B8100020685700200000022070F90408AD
:1035C00080B483B000AF78604FF0FF3318460C37FB
:1035D000BD465DF8047B704780B483B000AF78606F
:1035E00039603B684FF400525A60002318460C378C
:1035F000BD465DF8047B704780B483B000AF78604F
:10360000012318460C37BD465DF8047B704700BFA8
:1036100080B485B000AFF860B9607A6000231846C6
:103620001437BD465DF8047B704700BF80B584B099
:1036300000AFF860B9607A60FB68002B05D1B8680C
:10364000012103F0EDF8034600E00023184610378F
:10365000BD4680BD80B584B000AFF860B9607A60C7
:10366000FB68012B05D1B868796800F019F80346AA
:1036700000E0002318461037BD4680BD90B585B0E8
:1036800000AF064B3C460FCB07C423803B46184691
:103690000E2100F005F803F059F800BF88F904087E
:1036A00080B586B000AF7860396000237B6100236D
:1036B0003B6130E03A693B689A420FD13A697B69D5
:1036C000D31AFB60FB68002B07DD7B697A68134423
:1036D0001846F96803F08CF81AE019E03B697A683B
:1036E00013441B780A2B13D13A697B69D31ABB6048
:1036F0007B697A6813441846B96803F079F80A4878
:10370000022103F075F8BB6801337A6913447B61C9
:103710003B6901333B613A693B689A42CADD3B68C9
:1037200018461837BD4680BDA8F9040880B582B098
:1037300000AF78600B46FB707968FB78054AD35C74
:103740000846194601F0F8FD7B6818460837BD4663
:1037500080BD00BFACF9040880B582B000AF7860CE
:103760007B68184601F050FD7B68184601F000FEAA
:103770000837BD4680BD00BF80B582B000AF78601D
:103780007B681846012101F08FFE0837BD4680BDD9
:1037900080B582B000AF78607B681846002101F0E8
:1037A00083FE0837BD4680BD80B582B000AF78602B
:1037B0000B46FB707A68FB781046194601F074FEE0
:1037C0000837BD4680BD00BF80B483B000AF7860CD
:1037D0007B6818460C37BD465DF8047B704700BF18
:1037E00080B582B000AF786008F0D6FBF32008F017
:1037F0008DFC09F0E1FE08F0E5FB0837BD4680BD11
:1038000080B582B000AF786039607B68012B0DD144
:103810003B684FF6FF72934208D10648002107F03B
:103820005FF904480449054A13F07CF80837BD469F
:1038300080BD00BFBC1000206DAB0108000000205F
:1038400080B500AF01204FF6FF71FFF7D9FF80BDB3
:1038500080B500AF044842F2107101F0C7FA034886
:1038600001F0B2FB80BD00BF600F0020780F002088
:1038700080B582B000AF78600B46FB707B68FA7849
:103880001A707B68191DFB78324ADB0013445B78A1
:103890000846194601F07CFE7B6803F11001FB78B5
:1038A0002C4ADB0013449B780846194601F070FE51
:1038B0007B6803F11C01FB78264ADB001344DB78AC
:1038C0000846194601F038FD7B6803F12401FB78B6
:1038D000204ADB0013441B790846194601F02CFDF1
:1038E0007B6803F12C01FB781A4ADB0013445B79F7
:1038F0000846194601F020FD7B6803F13401FB788E
:10390000144ADB0013449B790846194601F014FD64
:103910007B6803F13C01FB780E4ADB001344DB7942
:103920000846194602F018F87B6803F15001FB784D
:10393000084A12F833300846194600F085F87B68CB
:10394000054A9A667B68054ADA667B681846083736
:10395000BD4680BDC8F90408780F0020600F002024
:1039600080B582B000AF78607B680433184601F000
:1039700057FC7B681033184601F052FC7B681C33FF
:10398000184601F041FC7B682433184601F03CFCEA
:103990007B682C33184601F037FC7B6834331846BB
:1039A00001F032FC7B684033184601F039FC7B683B
:1039B000503318464FF461310022002300F09AF88A
:1039C0007B681B780348194602F0F4FE0837BD46B1
:1039D00080BD00BFB0F9040880B582B000AF786048
:1039E0007B681846382101F0A7FC7B681846083729
:1039F000BD4680BD80B483B000AF78607B68044A68
:103A00001A607B6818460C37BD465DF8047B70472A
:103A100080F8040880B483B000AF786039603B68F8
:103A20001A687B681A607B681B68183B1B681A461B
:103A30007B6813443A6852681A607B6818460C37F2
:103A4000BD465DF8047B704780B582B000AF7860FA
:103A50000B46FB707B681846FFF7CCFF7B68224A59
:103A600018461146FFF7D6FF204A7B681A600022ED
:103A70007B6813441D4A1A6000227B6813441B4A6A
:103A80001A607B68191DFB78194ADB0013441B7907
:103A90000846194601F050FC7B6803F10C01FB78E5
:103AA000134ADB0013445B790846194601F044FCD5
:103AB0001420FDF735FE02467B685A617B685B691E
:103AC00000221A747B685B69FA781A707B6807E0D9
:103AD0007B68054A18461146FFF796FA12F0A4FFD4
:103AE00018460837BD4680BD34FA040804FA0408B5
:103AF000D8FA040890B587B002AFF860B9607A6070
:103B00003B60FB685B697A689A60FB685B693A684E
:103B1000DA60FB685B69BA685A60FB685B691878B1
:103B2000FB685B695968FB685B699B68DAB2FB6894
:103B30005B69DB68DCB200230093234604F08AFF54
:103B40001437BD4690BD00BF80B586B000AFF860A9
:103B5000B9607A603B607B68002B01D100230CE0E8
:103B6000FB685B691A787B681046B9681A463B683F
:103B700005F0F2F903467B617B6918461837BD46AC
:103B800080BD00BF80B586B000AFF860B9607A60D4
:103B90003B60FB685B691A787B681046B9681A4617
:103BA0003B6805F001FA03467B617B6918461837CC
:103BB000BD4680BD90B585B002AF786039607B6846
:103BC0005B693A685A607B685B6918787B685B69F7
:103BD00059687B685B699B68DAB27B685B69DB6804
:103BE000DCB200230093234604F034FF0C37BD46BB
:103BF00090BD00BF80B582B000AF78607B685B6924
:103C00001B78184605F04CFD0837BD4680BD00BF47
:103C100080B582B000AF78607B685B691B7818461E
:103C200005F060FD034618460837BD4680BD00BF5D
:103C300080B582B000AF78607868FFF7F9FA7868ED
:103C400012F0EEFE7B6818460837BD4680BD00BF07
:103C500080B582B000AF78607B681B681C3B1B6836
:103C60001A467B6813441846FFF7E2FF03461846DE
:103C70000837BD4680BD00BF80B483B000AF786018
:103C80007B68044A1A607B6818460C37BD465DF8AD
:103C9000047B70476000050880B483B000AF786093
:103CA00039603B681A687B681A607B681B68283B30
:103CB0001B681A467B6813443A6852681A607B682E
:103CC00018460C37BD465DF8047B704780B582B05E
:103CD00000AF786039607B681846FFF7CDFF7B68DE
:103CE0000F4A18461146FFF7D7FF0E4A7B681A6045
:103CF00000227B6813440B4A1A6000227B6813443D
:103D0000084A1A607B683A685A607B68083318462C
:103D1000396811F05DFA7B6818460837BD4680BDEA
:103D2000FCFF0408C4FF040880B483B000AF7860CF
:103D30007B68083318460C37BD465DF8047B704736
:103D400080B582B000AF78607B681B682C3B1B6835
:103D50001A467B6813441846FFF7E6FF03461846E9
:103D60000837BD4680BD00BF80B582B000AF786027
:103D70007B685B681B6808331B687A68526810466A
:103D80009847034618460837BD4680BD80B582B0C7
:103D900000AF78607B681B68143B1B681A467B6821
:103DA00013441846FFF7E0FF034618460837BD46A0
:103DB00080BD00BF80B582B000AF78607B685B6873
:103DC0001B680C331B687A68526810469847034694
:103DD00018460837BD4680BD80B582B000AF786018
:103DE0007B681B68183B1B681A467B68134418469F
:103DF000FFF7E0FF034618460837BD4680BD00BF09
:103E000080B582B000AF78607B685B681B68103358
:103E10001B687A6852681046984703461846083768
:103E2000BD4680BD80B582B000AF78607B681B68FE
:103E30001C3B1B681A467B6813441846FFF7E0FFDB
:103E4000034618460837BD4680BD00BF80B582B026
:103E500000AF78607B685B681B6814331B687A6806
:103E6000526810469847034618460837BD4680BD3D
:103E700080B582B000AF78607B681B68203B1B6810
:103E80001A467B6813441846FFF7E0FF03461846BE
:103E90000837BD4680BD00BF80B582B000AF7860F6
:103EA0007B685B681B6804331B687A68526810463D
:103EB00098470837BD4680BD80B582B000AF7860B6
:103EC0007B681B68303B1B681A467B6813441846A6
:103ED000FFF7E2FF0837BD4680BD00BF80B582B066
:103EE00000AF78607B685B681B681B687A68526803
:103EF000104698470837BD4680BD00BF80B582B0E8
:103F000000AF78607B681B680C3B1B681A467B68B7
:103F100013441846FFF7E2FF0837BD4680BD00BFD7
:103F200080B582B000AF78607B685B681B68043343
:103F30001B687A685268104698470837BD4680BDAE
:103F400080B582B000AF78607B681B68103B1B684F
:103F50001A467B6813441846FFF7E2FF0837BD4650
:103F600080BD00BF80B483B000AF78607B68184626
:103F70000C37BD465DF8047B704700BF80B582B04A
:103F800000AF78607868FFF7EDFF024613461B68C4
:103F9000343B1B68134418460837BD4680BD00BF3C
:103FA00080B582B000AF78607B681B68243B1B68DB
:103FB0001A467B6813441846FFF7E0FF034618468D
:103FC0000837BD4680BD00BF80B582B000AF7860C5
:103FD0007B680833184642F2107111F023F9083754
:103FE000BD4680BD80B483B000AF78607B68043389
:103FF00018460C37BD465DF8047B704780B582B02B
:1040000000AF78607868FFF7EDFF024613461B6843
:10401000583B1B68134418460837BD4680BD00BF97
:1040200080B582B000AF78607B681B68143B1B686A
:104030001A467B6813441846FFF7E0FF034618460C
:104040000837BD4680BD00BF80B483B000AF786044
:104050007B68183318460C37BD465DF8047B704703
:1040600080B582B000AF78607868FFF7EDFF024658
:1040700013461B68383B1B68134418460837BD4677
:1040800080BD00BF80B582B000AF78607B681B68E0
:10409000183B1B681A467B6813441846FFF7E0FF7D
:1040A000034618460837BD4680BD00BF80B483B0C4
:1040B00000AF78607B68203318460C37BD465DF84A
:1040C000047B704780B582B000AF78607868FFF7F6
:1040D000EDFF024613461B68383B1B681344184625
:1040E0000837BD4680BD00BF80B582B000AF7860A4
:1040F0007B681B681C3B1B681A467B681344184688
:10410000FFF7E0FF034618460837BD4680BD00BFF5
:1041100080B483B000AF78607B68283318460C37D2
:10412000BD465DF8047B704780B582B000AF786013
:104130007868FFF7EDFF024613461B68383B1B68A3
:10414000134418460837BD4680BD00BF80B582B015
:1041500000AF78607B681B68203B1B681A467B6851
:1041600013441846FFF7E0FF034618460837BD46DC
:1041700080BD00BF80B483B000AF78607B6834330B
:1041800018460C37BD465DF8047B704780B582B099
:1041900000AF78607868FFF7EDFF024613461B68B2
:1041A000343B1B68134418460837BD4680BD00BF2A
:1041B00080B582B000AF78607B681B68243B1B68C9
:1041C0001A467B6813441846FFF7E0FF034618467B
:1041D0000837BD4680BD00BF80B483B000AF7860B3
:1041E0007B684C3318460C37BD465DF8047B70473E
:1041F00080B582B000AF78607B681B682C3B1B6881
:104200001A467B6813441846FFF7E6FF0346184634
:104210000837BD4680BD00BF80B483B000AF786072
:104220007B684C3318460C37BD465DF8047B7047FD
:1042300080B582B000AF78607868FFF7EDFF024686
:1042400013461B682C3B1B68134418460837BD46B1
:1042500080BD00BF80B582B000AF78607B681B680E
:104260002C3B1B681A467B6813441846FFF7E0FF97
:10427000034618460837BD4680BD00BF80B584B0F0
:1042800000AFF860B9601346FB71BB681A68FB6841
:104290001A60FB681B68283B1B681A46FB681344BE
:1042A000BA6852681A60FB68181DFA7927491346E4
:1042B0005B0013445B000B449B78194601F04CFBF8
:1042C000FB6803F11800FA79204913465B00134498
:1042D0005B000B44DB78194601F02EF8FB6803F114
:1042E0002000FA79194913465B0013445B000B4424
:1042F0001B79194601F020F8FB6803F12800FA79D0
:10430000124913465B0013445B000B445B7919466A
:1043100001F012F8FB68FA7983F83020FB6800227C
:1043200083F83120FB6803F13402FB681B68283BEB
:104330001B681946FB680B4410461946FFF7C6FC7C
:10434000FB6818461037BD4680BD00BF2C0205082B
:1043500080B582B000AF78607B6893F83030104849
:104360001946FDF78DFA7B680833184600F058FFB0
:104370007B681833184600F047FF7B6820331846E7
:1043800000F042FF7B682833184600F03DFF7B6851
:104390001B681B68786898470837BD4680BD00BF1A
:1043A00000FB040880B483B000AF78607B68002213
:1043B00083F831200C37BD465DF8047B704700BFA1
:1043C00080B582B000AF78607B681B6834331B68AF
:1043D000786898477B6893F83130012B00D10DE065
:1043E0007B682033184600F00FFF7B68283318469F
:1043F00000F00AFF7B68012283F831200837BD46B0
:1044000080BD00BF80B582B000AF78607B681B685C
:1044100034331B68786898477B6893F83130042BF5
:1044200000D112E07B682033184600F0EDFE7B6877
:104430002833184600F0E8FE7B6834331846FFF74F
:10444000C3FD7B68042283F831200837BD4680BD58
:1044500080B582B000AF78600B46FB707B68184671
:10446000FFF70AFC7A680949FB7810461A46FFF7FD
:1044700005FF074A7B681A6000227B681344044AE0
:104480001A607B6818460837BD4680BD24FF0408C3
:10449000E8FE040880B582B000AF78600B46FB7080
:1044A0007B681846FFF7E8FB7B686433154A1846BB
:1044B0001146FFF7F1FB7A681349FB7810461A465C
:1044C000FFF7DCFE114A7B681A6000227B68134408
:1044D0000E4A1A6064227B6813440D4A1A607B6896
:1044E00003F14C00FA780B4913465B0013445B0060
:1044F0000B445B78194600F045FC7B68184608378A
:10450000BD4680BDC4FD0408B4FD04081CFD0408BC
:104510008CFD04082C02050880B582B000AF7860DD
:104520007B681B6834331B68786898477B6893F80E
:104530003130022B00D10AE07B684C33184642F23E
:10454000107100F053FC7B68022283F83120083799
:10455000BD4680BD80B582B000AF78607B681B68C7
:10456000303B1B681A467B6813441846FFF7D4FF9C
:104570000837BD4680BD00BF80B582B000AF78600F
:104580007B6893F83130022B04D17B684C3318469A
:1045900000F03CFC7B68002283F831200837BD46E0
:1045A00080BD00BF80B483B000AF786039603B68E5
:1045B0001A687B681A607B681B68283B1B681A4670
:1045C0007B6813443A6852681A607B6818460C3757
:1045D000BD465DF8047B704780B582B000AF78605F
:1045E0000B46FB707B681846FFF746FB7B6864331D
:1045F000154A18461146FFF7D5FF7A681349FB782C
:1046000010461A46FFF73AFE114A7B681A600022EC
:104610007B6813440E4A1A6064227B6813440D4A77
:104620001A607B6803F14C00FA780B4913465B0073
:1046300013445B000B441B781946FFF705FA7B68AF
:1046400018460837BD4680BDF4FB0408E4FB0408A7
:104650004CFB0408BCFB04082C02050880B582B0A2
:1046600000AF78607B681B6834331B687A6810463B
:1046700098477B6893F83130032B00D10CE07B68BE
:104680004C3318464FF4E12100220023FFF732FAA1
:104690007B68032283F831200837BD4680BD00BF08
:1046A00080B582B000AF78607B681B68303B1B68C8
:1046B0001A467B6813441846FFF7D0FF0837BD46FB
:1046C00080BD00BF80B582B000AF78607B681B689A
:1046D0002C331B68786898470246136820331B68A0
:1046E00010469847034618460837BD4680BD00BFB0
:1046F00080B582B000AF78607868FFF7E3FF0246CC
:1047000013461B68583B1B68134418460837BD46C0
:1047100080BD00BF80B582B000AF78607B681B6849
:10472000183B1B681A467B6813441846FFF7E0FFE6
:10473000034618460837BD4680BD00BF80B582B02D
:1047400000AF78607B681B682C331B6878689847DB
:104750000246136828331B681046984703461846DC
:104760000837BD4680BD00BF80B582B000AF78601D
:104770007868FFF7E3FF024613461B68383B1B6867
:10478000134418460837BD4680BD00BF80B582B0CF
:1047900000AF78607B681B681C3B1B681A467B680F
:1047A00013441846FFF7E0FF034618460837BD4696
:1047B00080BD00BF80B582B000AF78607B681B68A9
:1047C0002C331B6878689847024613682C331B68A3
:1047D00010469847034618460837BD4680BD00BFBF
:1047E00080B582B000AF78607868FFF7E3FF0246DB
:1047F00013461B68383B1B68134418460837BD46F0
:1048000080BD00BF80B582B000AF78607B681B6858
:10481000203B1B681A467B6813441846FFF7E0FFED
:10482000034618460837BD4680BD00BF80B582B03C
:1048300000AF78607B681B682C331B6878689847EA
:104840000246136830331B681046984703461846E3
:104850000837BD4680BD00BF80B582B000AF78602C
:104860007868FFF7E3FF024613461B68343B1B687A
:10487000134418460837BD4680BD00BF80B582B0DE
:1048800000AF78607B681B68243B1B681A467B6816
:1048900013441846FFF7E0FF034618460837BD46A5
:1048A00080BD00BF80B483B000AF78607B681B69B7
:1048B00018460C37BD465DF8047B704780B582B062
:1048C00000AF78607B681B691B6838331B687A68A7
:1048D000126910469847034618460837BD4680BD02
:1048E00080B582B000AF78607B681B682C3B1B688A
:1048F0001A467B6813441846FFF7E0FF0346184644
:104900000837BD4680BD00BF80B483B000AF78607B
:104910007B681B6918460C37BD465DF8047B704701
:1049200080B483B000AF78607B681B6918460C3791
:10493000BD465DF8047B704780B582B000AF7860FB
:104940007B681B691B6838331B687A6812691046DC
:104950009847034618460837BD4680BD80B582B0EB
:1049600000AF78607868FFF7E7FF024613461B68E0
:104970002C3B1B68134418460837BD4680BD00BF5A
:1049800080B582B000AF78607B681B682C3B1B68E9
:104990001A467B6813441846FFF7E0FF03461846A3
:1049A0000837BD4680BD00BF80B483B000AF7860DB
:1049B0007B681B6918460C37BD465DF8047B704761
:1049C00080B483B000AF78607B68044A1A607B686B
:1049D00018460C37BD465DF8047B7047C8060508CD
:1049E00080B483B000AF786039603B681A687B6838
:1049F0001A607B681B68283B1B681A467B68134457
:104A00003A6852681A607B6818460C37BD465DF8F4
:104A1000047B704780B582B000AF78600B46FB70B6
:104A20007B681B682C331B687868984703461833EB
:104A3000184600F09DFC7B681B682C331B68786867
:104A40009847034603F11802FB781046194600F018
:104A50002BFD0837BD4680BD80B582B000AF7860C1
:104A60007B681B682C331B6878689847024613687C
:104A70001B68104698470837BD4680BD80B582B098
:104A800000AF78607B681B682C331B687868984798
:104A90000246136804331B68104698470837BD4622
:104AA00080BD00BF80B582B000AF786039607B68A0
:104AB0001846FFF785FF7B68114A18461146FFF735
:104AC0008FFF104A7B681A6000227B6813440D4AEE
:104AD0001A603B681A1D7B685A603B6803F120022C
:104AE0007B689A603B6803F128027B68DA607B6828
:104AF0003A681A617B6818460837BD4680BD00BF1A
:104B0000540605081806050880B483B000AF786025
:104B100039603B681A687B681A607B681B68283BB1
:104B20001B681A467B6813443A6852681A607B68AF
:104B300018460C37BD465DF8047B704780B582B0DF
:104B400000AF786039607B681846FFF739FF7B68F3
:104B50001433174A18461146FFF7D6FF7B68154AEB
:104B600018461146FFF73CFF134A7B681A60002283
:104B70007B681344104A1A6014227B6813440F4A5E
:104B80001A603B681A1D7B685A603B6803F120027B
:104B90007B689A603B6803F128027B68DA607B6877
:104BA0003A681A617B6818460837BD4680BD00BF69
:104BB000F4040508E40405084C040508B8040508D5
:104BC00080B582B000AF78607B681B691B683C339E
:104BD0001B687A681269104698470837BD4680BD41
:104BE00080B582B000AF78607B681B68303B1B6883
:104BF0001A467B6813441846FFF7E2FF0837BD46A4
:104C000080BD00BF80B483B000AF786039603B687E
:104C10001A687B681A607B681B68283B1B681A4609
:104C20007B6813443A6852681A607B6818460C37F0
:104C3000BD465DF8047B704780B582B000AF7860F8
:104C400039607B681846FFF7BBFE7B681433174A50
:104C500018461146FFF7D6FF7B68154A18461146DD
:104C6000FFF7BEFE134A7B681A6000227B6813447C
:104C7000104A1A6014227B6813440F4A1A603B687A
:104C80001A1D7B685A603B6803F120027B689A60BA
:104C90003B6803F128027B68DA607B683A681A6136
:104CA0007B6818460837BD4680BD00BF2403050851
:104CB000140305087C020508E802050880B582B0E7
:104CC00000AF78607B681B691B683C331B687A689F
:104CD0001269104698470837BD4680BD80B582B03E
:104CE00000AF78607B681B68303B1B681A467B68A6
:104CF00013441846FFF7E2FF0837BD4680BD00BFEA
:104D000080B582B000AF0346FB71FB79042B1DD840
:104D100001A252F823F000BF4D4D01082D4D0108AE
:104D2000354D01083D4D0108454D01080948FCF786
:104D3000A7FD0BE00848FCF7A3FD07E00748FCF7D8
:104D40009FFD03E00648FCF79BFD00BF0837BD460A
:104D500080BD00BF7808050884080508900805088C
:104D60009C08050880B483B000AF78607B68044A73
:104D70001A607B6818460C37BD465DF8047B7047A7
:104D8000D008050880B582B000AF78600B46FB7094
:104D90007B681846FFF7E6FF7B68124A1A607B685B
:104DA000191DFB78104ADB0013441B79084619468D
:104DB00000F0C2FA7B6803F10C01FB780A4ADB00C1
:104DC00013445B790846194600F0B6FAFB78064AA8
:104DD00052F833207B685A617B6818460837BD4615
:104DE00080BD00BFB80805081C09050880B582B061
:104DF00000AF786039607B685B69DBB21846396860
:104E000002F05CFD0837BD4680BD00BF80B582B0B2
:104E100000AF78607B685B69DBB2184602F0C6FDC4
:104E20000837BD4680BD00BF80B582B000AF786056
:104E300039607B685B69DBB21846396802F004FEB2
:104E40000837BD4680BD00BF80B586B000AFF860B2
:104E50007A603B600B46FB72FB685B69DAB2FB7AF7
:104E6000104619467A683B6802F01EFE0346FB7541
:104E7000FB7D1846FFF744FFFB7D002B0CBF012391
:104E80000023DBB218461837BD4680BD80B586B01A
:104E900000AFF8607A603B600B46FB72FB685B69B1
:104EA000DAB2FB7A104619467A683B6802F032FEA5
:104EB0000346FB75FB7D1846FFF722FFFB7D002BA9
:104EC0000CBF01230023DBB218461837BD4680BD56
:104ED00080B588B002AFF8607A603B600B46FB7229
:104EE000FB685B69D9B2FA7A3B6A00937B6A0193EB
:104EF000084611467A683B6802F044FE0346FB759B
:104F0000FB7D1846FFF7FCFEFB7D002B0CBF012349
:104F10000023DBB218461837BD4680BD80B483B08D
:104F200000AF78607B68044A1A607B6818460C37CB
:104F3000BD465DF8047B70476809050880B582B0FE
:104F400000AF78600B46FB707B681846FFF7E6FF02
:104F50001B4A7B681A6000227B681344184A1A6057
:104F60007B68191DFB78174A9B0013445B78084641
:104F7000194600F0E1F97B6803F10C01FB78114A56
:104F80009B0013449B780846194600F0D5F97B68CE
:104F900003F11401FB780B4A9B001344DB780846AD
:104FA000194600F0C9F9FB78064A12F823301A4670
:104FB0007B68DA617B6818460837BD4680BD00BF54
:104FC00050090508BC09050880B582B000AF7860BB
:104FD0007B68DB69DBB218460021382203F0FEF95A
:104FE000786800F041F80837BD4680BD80B584B0D0
:104FF00000AFF860B9607A60FB68DB69DBB2184625
:10500000B96800227B6803F081FB01231846103742
:10501000BD4680BD80B584B000AFF860B9607A60ED
:10502000FB68DB69DBB21846FF21BA687B6803F0D6
:105030006DFB012318461037BD4680BD80B584B096
:1050400000AFF860B9607A603B60FB68DB69DBB297
:105050001846B9687A683B6803F058FB0123184684
:105060001037BD4680BD00BF80B582B000AF78600C
:105070007B68DB69DBB2184603F0EAFA0837BD4605
:1050800080BD00BF80B582B000AF78604FF40E7075
:10509000FCF746FB02467B681A607B681B680022AF
:1050A0001A703E2002F026F83E2002F07FF93E20E2
:1050B00002F0B0F93E2002F039FA3E20012102F060
:1050C000EFFA7B6818460837BD4680BD80B582B0D0
:1050D00000AF78607B681B681846FCF72DFB7B6887
:1050E00018460837BD4680BD80B400AFBD465DF8A8
:1050F000047B704790B589B000AFF860B9607A6002
:10510000FB681B6848331C6807F1100318460C49FC
:10511000FBF70EFD07F11003F868B9687A68A0473D
:1051200007F110031846FBF791F906E007F11003A9
:105130001846FBF78BF911F077FC2437BD4690BD7C
:10514000E950010890B585B000AFF860B9607A60A9
:105150003B60FB681B6848331C68F868B9687A686C
:105160003B68A0471437BD4690BD00BF90B58BB0DB
:1051700000AFF860B9607A603B60FB681B68483339
:105180001C6807F120023B461046194607F1380219
:1051900000F0A6FC07F1100207F1200310461946A3
:1051A00000F07EFD07F11003F868B9687A68A0473F
:1051B00007F110031846FBF749F906E007F1100361
:1051C0001846FBF743F911F02FFC2C37BD4690BD74
:1051D00090B585B000AFF860B9607A60FB681B6875
:1051E00048331C68F868B96800227B68A047143708
:1051F000BD4690BD80B483B000AF78600C37BD462B
:105200005DF8047B704700BF80B582B000AF786066
:105210007B681B79184601F06DFF0837BD4680BDDD
:1052200090B589B000AF78607B681B685C3B1B68F9
:105230001A467B6813441C7907F10C03184600F0EA
:105240006DFD07F10C03204601211A4601F09EFD79
:1052500007F10C031846FBF7F9F87B681B685C3B09
:105260001B681A467B6813441B791846012101F01C
:10527000C5FF7B681B685C3B1B681A467B68134450
:105280001B79184602F05AF87B681B685C3B1B6868
:105290001A467B6813441B79184601F02BFF06E081
:1052A00007F10C031846FBF7D1F811F0BDFB2437CA
:1052B000BD4690BD80B582B000AF78607B681B684A
:1052C0003C3B1B681A467B6813441846FFF7A8FF4F
:1052D0000837BD4680BD00BF80B483B000AF7860A2
:1052E0007B68044A1A607B6818460C37BD465DF837
:1052F000047B70476018050880B485B000AFF86083
:10530000B9601346FB71BB681A68FB681A60FB68DA
:105310001B68383B1B681A46FB681344BA6852681E
:105320001A60FB68FA791A71FB6818461437BD4693
:105330005DF8047B704700BF80B582B000AF786035
:105340000B46FB707B681846FFF7C6FF074A7B6871
:105350001A6000227B681344044A1A607B68FA785A
:105360001A717B6818460837BD4680BD28180508A5
:1053700080B582B000AF78607B681B79184602F078
:1053800015F87B681B79184602F044F87B681B7996
:10539000184602F0CBF80837BD4680BD80B582B014
:1053A00000AF78607B681B79184602F091F87B6843
:1053B0001B79184602F0BAF80837BD4680BD00BF19
:1053C00080B582B000AF78607B681B79184602F028
:1053D0007FF87B681B79184602F0D6F80837BD467F
:1053E00080BD00BF80B582B000AF78607B681B795C
:1053F000184602F06DF87B681B79184602F0F8F841
:105400000837BD4680BD00BF80B582B000AF786070
:105410007B681B79184601F0C9FF7B681B79184629
:1054200002F024F87B681B79184602F07FF80837F1
:10543000BD4680BD80B582B000AF78607B681B79C7
:10544000184601F0B3FF7B681B79184602F00EF88E
:105450007B681B79184602F097F80837BD4680BD77
:1054600080B582B000AF78607B681B79184601F088
:105470009DFF7B681B79184601F0F8FF7B681B795C
:10548000184602F0B5F80837BD4680BD80B582B039
:1054900000AF78607B681B79184602F0DDF80346A0
:1054A00018460837BD4680BD80B582B000AF786031
:1054B0000B46FB707B681A79FB781046194602F0A0
:1054C000EFF80837BD4680BD80B582B000AF786088
:1054D0007B681B79184602F019F90837BD4680BD74
:1054E00080B582B000AF78607B681B682C331B6886
:1054F000786898470837BD4680BD00BF80B483B048
:1055000000AF786039603B681A687B681A607B6816
:105510001B68383B1B681A467B6813443A6852681C
:105520001A607B6818460C37BD465DF8047B7047EF
:1055300080B485B000AFF860B9601346FB71BB68FA
:105540001A68FB681A60FB681B685C3B1B681A469C
:10555000FB681344BA6852681A60FB681B68383BE2
:105560001B681A46FB681344BA6892681A60FB68A5
:105570001B68603B1B681A46FB681344BA68D26814
:105580001A60FB6818461437BD465DF8047B704707
:1055900080B582B000AF78600B46FB707B68043347
:1055A0001846FFF799FE7B681A1D1149FB781046D3
:1055B0001A46FFF7A1FE7B680E4A18461146FFF710
:1055C0009DFF0D4A7B681A6004227B6813440B4AD6
:1055D0001A6004227B681344084A1A6000227B6820
:1055E0001344054A1A607B6818460837BD4680BDDB
:1055F0009016050898160508C01505084C160508EC
:1056000080B582B000AF78607B681B685C3B1B682C
:105610001A467B6813441B79184601F08FFE083741
:10562000BD4680BD80B584B000AFF860B9607A60D7
:105630003B60FB681B685C3B1B681A46FB681344B5
:105640001B79184601F07AFEFB681B685C3B1B68FF
:105650001A46FB6813441A797B68002B01D1012399
:1056600000E00223104619463A6801F08FFBFB6800
:105670001B6840331B68F868B9689847FB681B686B
:105680005C3B1B681A46FB6813441B79184601F003
:105690006DFEFB681B6844331B68F868002198475F
:1056A0001037BD4680BD00BF80B582B000AF7860C6
:1056B00039603B68012B04D0022B1CD0002B0DD08D
:1056C00026E07B681B685C3B1B681A467B681344BA
:1056D0001B791846002101F091FD19E07B681B68D9
:1056E0005C3B1B681A467B6813441B7918460121F2
:1056F00001F084FD0CE07B681B685C3B1B681A466C
:105700007B6813441B791846022101F077FD00BF26
:105710000837BD4680BD00BF80B582B000AF78605D
:1057200039607B681B685C3B1B681A467B681344C6
:105730001B791846396801F0DFFA0346002B14BFC5
:1057400001230023DBB218460837BD4680BD00BFE9
:1057500080B483B000AF786039603B681A687B68BA
:105760001A607B681B68383B1B681A467B681344C9
:105770003A6852681A607B6818460C37BD465DF877
:10578000047B704780B485B000AFF860B960134601
:10579000FB71BB681A68FB681A60FB681B684C3BAE
:1057A0001B681A46FB681344BA6852681A60FB68A3
:1057B0001B68383B1B681A46FB681344BA6892683A
:1057C0001A60FB681B68503B1B681A46FB68134451
:1057D000BA68D2681A60FB6818461437BD465DF88F
:1057E000047B704780B582B000AF78600B46FB70D9
:1057F0007B6804331846FFF76FFD7B681A1D11495B
:10580000FB7810461A46FFF777FD7B680E4A18466C
:105810001146FFF79DFF0D4A7B681A6004227B68E2
:1058200013440B4A1A6004227B681344084A1A6026
:1058300000227B681344054A1A607B6818460837C3
:10584000BD4680BD10140508181405085813050836
:10585000D013050880B582B000AF78607B681B6804
:105860004C3B1B681A467B6813441B79184601F0B1
:10587000DFF80837BD4680BD80B582B000AF7860E4
:105880007B681B684C3B1B681A467B6813441B797A
:10589000184601F02FFC0837BD4680BD80B582B0A8
:1058A00000AF78607B681B6838331B68786898475E
:1058B00003465B0007EE903AF8EEE77A9FED047A34
:1058C000C7EE877AB0EE670A0837BD4680BD00BFD5
:1058D0000030274580B582B000AF78607B681B68D8
:1058E0004C3B1B681A467B6813441B79184601F031
:1058F000A9F8034618460837BD4680BD80B483B07A
:1059000000AF786039603B681A687B681A607B6812
:105910001B685C3B1B681A467B6813443A685268F4
:105920001A607B681B68383B1B681A467B68134407
:105930003A6892681A607B681B68603B1B681A466D
:105940007B6813443A68D2681A607B6818460C3743
:10595000BD465DF8047B704780B582B000AF7860CB
:105960000B46FB707B6808331846FFF7B5FC7B6875
:1059700003F108022649FB7810461A46FFF7BCFCE3
:105980007B68244A18461146FFF7E2FE7B68043321
:10599000214A18461146FFF7B1FD7B6810331F4AB4
:1059A00018461146FFF7AAFF7A681D49FB78104692
:1059B0001A46FFF7E7FE7B681A1D1A49FB78104666
:1059C0001A46FFF7B5FD184A7B681A6008227B6803
:1059D0001344164A1A6008227B681344134A1A605B
:1059E00000227B681344104A1A60114A7B685A608F
:1059F00004227B6813440E4A1A6010227B68134409
:105A00000C4A1A607B6818460837BD4680BD00BF47
:105A1000640C05086C0C0508740C05087C0C050862
:105A20002C0C05083C0C0508200A0508480B050845
:105A3000BC0A0508D80B050880B582B000AF7860B5
:105A40007B681B684C3B1B681A467B6813441B79B8
:105A5000184601F073FC7B681B684C3B1B681A46B8
:105A60007B6813441B79184600F0E2FF0837BD46F7
:105A700080BD00BF80B582B000AF78607B681B68D6
:105A80004C3B1B681A467B6813441B79184601F08F
:105A900055FC7B681B684C3B1B681A467B681344AB
:105AA0001B79184601F026FB0837BD4680BD00BFB4
:105AB00080B483B000AF78607B6818460C37BD4671
:105AC0005DF8047B704700BF80B483B000AF78609E
:105AD0007B6818460C37BD465DF8047B704700BFF5
